:103E0000112484B714BE81FF03D185E08093810023
:103E100082E08093C00088E18093C10096E0909397
:103E2000C20098E09093C400809360008EE080937D
:103E30006000259A86E028E13EEF91E0309385000E
:103E40002093840096BBB09BFECF1D9AA89581500D
:103E5000A9F7612C712C08E138E0F32EEE24E394ED
:103E600045E0D42E51E1C52E13E0ADD0813489F464
:103E7000AAD08983B4D08981823819F484E09CD097
:103E800098C0813819F484E097D093C083E094D02F
:103E900090C0823419F484E1AED08BC0853419F41B
:103EA00085E0A9D086C0853551F48DD0B82E8BD051
:103EB0006B2C712C782A660C771C91D07AC08635D1
:103EC00029F484E098D080E077D073C0843609F07C
:103ED00043C079D078D0982E76D0611488E37806E4
:103EE00038F4F30117BFE895A12CBB24B39403C0A9
:103EF000A12CBB24B39467D0F50181935F019E127E
:103F0000FACF6114F8E37F0618F0F30117BFE895C4
:103F100066D007B600FCFDCFA301A0E0B1E08C9114
:103F200012969D0121503109F901208190E0922BD8
:103F3000FA010C01E7BEE89511244E5F5F4FA038EF
:103F4000F1E0BF0761F7F301D7BEE89507B600FCC3
:103F5000FDCFC7BEE8952DC08437C1F434D033D02F
:103F6000982E31D03CD0F301862C890C5F018FEF65
:103F7000A81AB80A849120D0F5018A10F7CFEFEF84
:103F80006E1A7E0A9A94690C711C13C0853741F42D
:103F900026D08EE111D084E90FD086E00DD009C083
:103FA000813531F400936000F092600018D001C0B8
:103FB00016D080E101D059CF9091C00095FFFCCF81
:103FC0008093C60008958091C00087FFFCCF809148
:103FD000C00084FD01C0A8958091C6000895F3DF5C
:103FE000803239F088E18093600088E0809360003F
:103FF000FFCF84E1E1CFCF93C82FE5DFC150E9F7D0
:10400000CF91EDCFE0E6F0E098E1908380830895D2
:10401000E0E6F0E088E180831082EE27FF27099434
:023FFE000404B9
:0400000300003E00BB
:00000001FF
